:020000040001F9
:10B000007030002015B101002FB1010031B10100F5
:10B010000000000000000000000000000000000030
:10B0200000000000000000000000000033B101003B
:10B03000000000000000000035B1010037B1010040
:10B0400039B1010039B101004DBE010039B1010033
:10B0500039B101000000000091BA010039B10100CE
:10B0600039B1010039B1010039B1010039B1010034
:10B0700039B1010039B1010039B1010039B1010024
:10B0800039B1010065BD010039B1010039B10100DC
:10B0900085BD010039B101008DBD010039B101004C
:10B0A00039B1010039B101000000000000000000CA
:10B0B0000000000000000000000000000000000090
:10B0C0000348854600F070FC00480047EDDE0100B3
:10B0D00070300020401E00BF00BF00BF00BF00BF97
:10B0E00000BF00BF00BF00BF00BF00BF00BFF1D165
:10B0F00070470000401E00BF00BF00BF00BF00BF80
:10B1000000BF00BF00BF00BF00BF00BF00BFF1D144
:10B11000704700000321094802680A43026008489A
:10B1200002680A4302600748804707480047FEE775
:10B13000FEE7FEE7FEE7FEE7FEE70000240500402D
:10B1400054050040ADBD0100C1B0010030B50B4653
:10B15000014600202022012409E00D46D5409D42F1
:10B1600005D31D469540491B254695404019154677
:10B17000521E002DF1DC30BD03460B439B0703D06C
:10B1800009E008C9121F08C0042AFAD203E00B78AC
:10B19000491C0370401C521EF9D27047D2B201E024
:10B1A0000270401C491EFBD270470022F6E710B522
:10B1B00013460A4604461946FFF7F0FF204610BD25
:10B1C000F8B502464A40D40F42004B0052085B08D3
:10B1D0009A4202D20246084611464A0023D0C30DC5
:10B1E0004A00DDB2120EAD1A202D35DA49020126D1
:10B1F000490AF6058A19002C00D0524220214F1B23
:10B200001146B9402A411018C20D9A4221D0002C93
:10B2100017D0012D08DCDA05801AD20F8019D20769
:10B22000DBB200F0DFFAF8BDDA05801A0123400036
:10B230001B06C01880185A428018CA0F10434900D4
:10B2400007E04908C2071143DA05801A801940084F
:10B25000801800F0BFFAF8BD61000122511A001BEE
:10B26000F7E70122D2075140AAE70122D207504056
:10B27000A6E7024670B54A40D30FDB0740002DD049
:10B280004A002AD0010E140E091900021202400AC7
:10B29000520A8418E50104465443000A120A2E0497
:10B2A0005043A4194219200CC543AA18120C0125B9
:10B2B0007F39521CAD0352191204240400D0521CD1
:10B2C000104301D44000491EC2B20C06C009201828
:10B2D000401C4008802A02D003E0002070BD4008D6
:10B2E0004000002900DA0020184370BD70B5024606
:10B2F0004A40D50F40004A00ED0740085208002898
:10B3000014D0002A12D0C40DD30D41020120C00573
:10B310005202490A520AE41A091812187D3491425D
:10B3200001D3641C00E04900002C01DA002070BD4C
:10B330000023914201D3891A0343400849000028A1
:10B34000F7D100290AD0914202D10121C90705E0B5
:10B35000914201D2012101E00121C943E005C01859
:10B36000401900F037FA70BDF0B50746084658405E
:10B3700087B0C00F049048000E46590040084908A5
:10B38000BC1A884105D2384631461E4617460B4640
:10B39000024658004008104303D13846314607B0F2
:10B3A000F0BD300D039040055900400D490D05904A
:10B3B000401A029040286DDA18030121000B09059C
:10B3C0000843019004980092002805D00199524248
:10B3D0000020884100920190029840210A1A0199A8
:10B3E000009800F0D4F905460C46684607C800F0FE
:10B3F000DEF9C0197141039A0E0D0023D71756408C
:10B400001A467A40164340D0049A002A29D0029A5C
:10B41000012A039A11DC1205C01A91410126360552
:10B42000001C7141D20F059ED20700930192029633
:10B430002A46234600F01DFAB1E71605224A0F46B8
:10B44000B218C01AB74101210905001C4F4100186C
:10B450007F41114618187941E20F10436D1964417C
:10B4600013E0E2076D0815436408C2071443039A0A
:10B4700001261205C01A91413605001C7141CE0704
:10B48000400830434908C01851412A46234600F07D
:10B49000E3F984E7049801224000C117121A00233F
:10B4A0008B4104983146C417381AA141EFE730B4F4
:10B4B0000124E407634030BC56E730B40124E407BC
:10B4C000614030BC50E700000000E0FFF0B51FB461
:10B4D00088B00B990998002448400999C00F490089
:10B4E00049080991C0070B990090490049080B9140
:10B4F00009990898A646084303D00B990A9808436F
:10B5000003D1002001460DB0F0BD09980124400090
:10B51000420D4800410D099824050003000B20430B
:10B5200009900B980003000B20430B9050181A4908
:10B530004018002201901446104601E0032801DA69
:10B54000034600E003239C46C11A0AAE0AE05F00EE
:10B5500008ADED5B4F00F75B7D430027AA187C41E7
:10B560005B1E491C6145F2DD410004AB5A522104C7
:10B57000120C0A43240C401C0828DFDB01980290BF
:10B580000099704601910090059B049A07990698CE
:10B5900000F06FF9B7E700000DFCFFFFF0B50C46B7
:10B5A0005C4085B0E40FE40703944C000026640877
:10B5B00059009446490802460296224321D0624629
:10B5C0000A431ED06200570D4A000E032303550D97
:10B5D000012402462C492405781B1B0B360B40180E
:10B5E00023432643614600901C46501AB44103D3BE
:10B5F0000098401C009002E0921800985B410028DF
:10B6000003DA0020014605B0F0BD00200121090544
:10B610000746864611E064461D46141BB54106D315
:10B620006546521BB341744607430C43A646CD07FB
:10B6300040084908284392185B4105460D43EAD16A
:10B640001046184313D060461946504071400843D5
:10B6500003D100220123DB0709E06046101AB34141
:10B6600002D20122002302E00122D24353100098AB
:10B6700074460105381C6141029C039D0019694113
:10B6800000F0EAF8BFE70000FD03000070B54B00D2
:10B690005B0803430BD04B005C0D0026334665422C
:10B6A000B341D417AD1AA34102DB0020014670BD9F
:10B6B00012053018514170BDC217C10F504010B56E
:10B6C0004018CA079623002100F08CF810BDC20F65
:10B6D000D207400040080BD0C10D0723DB01C91879
:10B6E00040020905400A1143C20840071143704750
:10B6F000002001467047CB0FDB07490010B5490811
:10B7000002460A4307D00A0D07240903E401090B86
:10B71000121B002A01DC002010BDC900440F0C439D
:10B72000C100E018D205801800F054F810BDF0B543
:10B730001FB40646002082B00546402401910090C7
:10B740001BE0019922460F46304600F03FF9049A6B
:10B75000059B801A994110D310461946224600F0E5
:10B7600016F8361A8F410197224601200021009FCA
:10B7700000F00DF838184D4100902046641E002856
:10B78000DFDC019B00982946324607B0F0BD10B5BA
:10B79000202A04DB0146203A9140002010BD914050
:10B7A00020239C1A0346E3401943904010BD10B576
:10B7B000202A06DBCB170846203A1041C1170B435D
:10B7C00006E00B461341D0402024A21A91400843C2
:10B7D000194610BD002904DA401C490001D1400877
:10B7E0004000704770B40024050C05D110240004FB
:10B7F00002D1002922D01124050E01D10834000203
:10B80000050F01D1241D0001850F01D1A41C80006A
:10B81000002801DB641C4000002908D020252E1BD5
:10B820000D46F540A14000D00121294308431B1BD0
:10B830000106DB1D000A002B02DA002070BC7047F5
:10B84000DB05181880180029F8DA401C4900F5D1EA
:10B8500070BC40084000704710B5002B08DA002487
:10B86000401C614192185B411A4301D140084000DD
:10B8700010BDF0B51FB482B005460C0003D00846D9
:10B8800000F0F8FA02E000F0F5FA203002460090ED
:10B8900021462846FFF77BFF049B059A04460F4686
:10B8A00018431143084303D12046394607B0F0BD81
:10B8B0001846104317D0009840210A1A18460599D7
:10B8C00000F084F805460E46009A05990498FFF7A3
:10B8D0005EFF084301D0012000E00020C1170543AE
:10B8E0000E432C43374300990E986305401A79059F
:10B8F000E40A0A3000220C43FD0A002802DA002084
:10B900000146D3E70105101969410C9C0D9D0019F2
:10B910006941FFF7A1FFC9E70EB5C217C10F50403B
:10B92000CA0740180021054B0293019200910A4674
:10B930000B46FFF79EFF03B000BD0000330400007C
:10B940004A0009030123090B1B0519430A4B10B5D3
:10B95000520D9A4202DA0020014610BD064B3433E4
:10B960009A4203DC9A1A00F031F810BD034BD2184A
:10B97000FFF70DFF10BD0000FF030000CDFBFFFF30
:10B9800010B5002904DB0124E40740428C41214624
:10B99000002B04DB1C460123DB075242A3419942E2
:10B9A00000D1904210BD0000064C0125064E05E076
:10B9B0002046E36807C82B4398471034B442F7D3B6
:10B9C000FFF782FB00FB010020FB010010B5202ADD
:10B9D00004DB0846203AD040002110BD0B46D3407E
:10B9E000D0402024A21A91400843194610BDFEB54C
:10B9F00000231A461B1A8A4103DB0020014603B0CC
:10BA0000F0BD4A000D0301212D0B0905520D0D4318
:10BA1000D10702D100186D41521E5110FF31FF3184
:10BA20000131002704463E46384600970191024600
:10BA3000012100200905FFF7C9FFC3197141F8185A
:10BA4000324684468E464A4161462846611A9041F4
:10BA500004D36046241A954176461F46241900985F
:10BA60006D41401C00903428E1DDF91930467041E9
:10BA7000091BA84103D20022D243134601E0002251
:10BA8000134601980105381C7141FFF7E5FEB6E742
:10BA9000F0B50025FF2487B0013401262F46039519
:10BAA000204602F027FD002808D04948406830426F
:10BAB00004D048480021201835430160241D760039
:10BAC0007F1CA4B2042FEBD3FF207D3002F012FDC7
:10BAD000002807D0404900200860480705433F4838
:10BAE000006903903E4C280713D0012700263846F2
:10BAF00028420AD03B48B200111808690969C004FD
:10BB0000C00E8903A258890F90477F00761C042E2F
:10BB1000EDD3002D59DA00200290401E4FE0A1190C
:10BB2000403108788506AD0E42B2521C3BD001214F
:10BB3000A9400091059A114235D08009019028460C
:10BB400001F054FD800020580490002804D0019892
:10BB50000099032804D006E00198032823D1009916
:10BB6000029808430290204AA80080180068039AAF
:10BB70008003800F114202D0022802D013E0032874
:10BB800011D10199032907D102281CD0022128468E
:10BB900002F0A0FC7F1CFFB20498002803D0049A96
:10BBA000284601999047761C042EB8D3002F0CD05C
:10BBB0000A4800690399884207D003900298002739
:10BBC0003E460590ABE70321E1E707B0F0BD00007A
:10BBD00000630040006000407C61004000050050B0
:10BBE000EC2700200065004000070050F0B589B048
:10BBF00000253548AC0001593448009101513248C4
:10BC0000334E10300059B168FFF7DAFA2F49103976
:10BC100008510190F168FFF7D3FAFFF758FD02468B
:10BC20000B4600202B49FFF7B9FC06460F4601984A
:10BC3000FFF74DFD32463B46FFF748FCFFF75BFD43
:10BC40002249074630390851214810304057FFF744
:10BC500033FD1E492031085102900099FFF701FB86
:10BC60003946FFF706FB0099FFF7AAFA174E394647
:10BC7000103630517F20C005FFF7F3FA0199FFF726
:10BC8000F8FA3746303F38510298FFF720FD024658
:10BC90000B46691C10A000F0DDF83059FFF717FDC6
:10BCA00002460B46691C15A000F0D4F80648395925
:10BCB0001030015110386D1C3159EDB20151042D75
:10BCC00097D309B0F0BD0000881F00203825002060
:10BCD000B01E00200000F03F0D0A204D6573617515
:10BCE0007265642052535349206F66204E6F64651D
:10BCF000202564203A2025362E3366000D0A204B7D
:10BD0000616C6D616E20202052535349206F662074
:10BD10004E6F6465202564203A2025362E33660058
:10BD20008307FF22DB0E9A408907090E99400028FD
:10BD30000BDA0007000F0838830808489B001B181F
:10BD4000D86990430843D8617047830804489B0032
:10BD50001B181868904308431860704700ED00E016
:10BD600000E400E010B506490020086048608860E3
:10BD7000C860034940390860486003F051FC10BDB9
:10BD80004011014010B503F0E1FB10BD10B50648AD
:10BD90004068002805D08047002801D000F0EAFD67
:10BDA00010BD01F029FE10BD681F002010B501F084
:10BDB00081FE002805D01F491D484860C8131E4950
:10BDC00088611E48018CC9B201290BD1828C1207EF
:10BDD00008D1028D1206120F042A03D1828D120699
:10BDE000120F0AD0012921D1818C09071ED1018DA2
:10BDF0000906090F0A2904D007E0114A01219160C0
:10BE0000F5E7828D1206120F05D00D290ED1808D17
:10BE10000006000F0AD10B480168012904D00A4925
:10BE2000016001680129FCD1C021416110BD000001
:10BE3000DFFF07C000050040006C0040C00F00F0AD
:10BE40000006004000EC06407593000010B503F0BA
:10BE5000D1FC10BD0FB410B503A9044B044A0298DD
:10BE600000F064F910BC08BC04B0184797D9010071
:10BE7000641F00202021020C01D010211046020A6C
:10BE800001D008391046020901D0091F1046820866
:10BE900001D0891E1046420801D0881E7047081A3A
:10BEA000704730B47446641E2578641CAB4200D2DF
:10BEB0001D46635D5B00E31830BC18474900CA02A9
:10BEC000104300D004204A0D01D001221043054A3E
:10BED000490D914201D102210843012800D10520DA
:10BEE00070470000FF070000F8B504464F1EC80069
:10BEF0000838211815461E46086849683A46062340
:10BF00009A4310D02A463346FFF7E0FA3A46D20069
:10BF1000083AA3181A687F1E5B68FFF725FA062205
:10BF20003B469343EED1022F23D0042F11D0062F8E
:10BF30002FD12A463346FFF7C9FAE36AA26AFFF710
:10BF400013FA2A463346FFF7C1FA636A226AFFF7FB
:10BF50000BFA2A463346FFF7B9FAE369A269FFF7FD
:10BF600003FA2A463346FFF7B1FA63692269FFF7FD
:10BF7000FBF92A463346FFF7A9FAE368A268FFF700
:10BF8000F3F92A463346FFF7A1FA63682268FFF700
:10BF9000EBF9F8BD034A10B500201107FFF776FB57
:10BFA00010BD000001FDFFFF02E008C8121F08C11C
:10BFB000002AFAD170477047002001E001C1121F2A
:10BFC000002AFBD17047000001490860704700005B
:10BFD000841F0020F0B51FB484B007980699020DA5
:10BFE00001430FD10F98012449A3012807D00498D9
:10BFF0000F9A84600360C260416009B0F0BD0E9882
:10C00000C143F4E7434844491018484305140F98C6
:10C0100001280E980BD0281A401C00243F4E40499E
:10C02000009401910290002803DA474216E0404252
:10C03000F3E7074612E0F80707D022463346019996
:10C040000098FFF743FA01910090224633461046CC
:10C050001946FFF73BFA04460E467F10002FEAD13F
:10C060000298019B0028009A0799069802DAFFF7C8
:10C070002DFA01E0FFF792FA04460E460022294B02
:10C08000FFF77EFC03D80020C043014607E00022F2
:10C09000254B20463146FFF767F9FFF751FC102486
:10C0A00009E0002C0ADB0A220023FFF740FB059B76
:10C0B00030321A55641E02460A43F2D1641C112222
:10C0C000059B121B1C190F9B012B08D00123084351
:10C0D00002D10E9882420DDD00236D1C0EE0084354
:10C0E00003D10E98151A6D1E0AE011200E90002043
:10C0F0000F908CE7824201DA00236D1E002B86D060
:10C1000004980F99456004608260C16075E7000083
:10C110003000000001FCFFFF104D00000000244033
:10C120000000F03F0000F0430000E03FFFB597B093
:10C13000064600251FE2252879D10024F949274623
:10C14000761C049432780120203A904002460A423C
:10C1500002D00443761CF5E730782A280ED002225C
:10C16000307801463039092916D804990A235943F1
:10C17000303940181443761C0490F1E7189802C82F
:10C1800004911890002904DA012040030443484236
:10C19000049002200443761C30782E2814D1042009
:10C1A0000443761C30782A2809D11898761C80C858
:10C1B000189009E00A214F43303FC719761C3078A8
:10C1C000014630390929F5D930786C2810D006DCC1
:10C1D0004C281AD068280ED06A2817D104E0742899
:10C1E00013D07A2812D110E00120400504430CE05E
:10C1F0000121090501E0032109050C437178814201
:10C2000003D10120761C00052418761C307811908B
:10C2100066280BD013DC58287ED009DC00287CD09F
:10C220004528F6D04628F4D047281AD1AAE118E0CC
:10C23000632836D0642871D0652812D1A2E1702815
:10C240006DD008DC6728F1D069287CD06E280DD02D
:10C250006F2806D1BDE073282FD0752872D07828BA
:10C260005AD01A9A199990476D1C83E16002400FC9
:10C27000022809D003280DD00428189801680DD091
:10C28000001D0D60189075E11898EA1702C80D603E
:10C290004A60F7E7189802C80D80F3E7001D0D709B
:10C2A000F0E718986A460178001D11721890002076
:10C2B000507202A80090012005E0189802C818905A
:10C2C00000200091C04361070DD5002101E00199D4
:10C2D000491C0191B94212DA8142F8DB009A515CA3
:10C2E0000029F4D10BE0002101E00199491C0191E2
:10C2F0008142FADB019A0099895C0029F5D1019904
:10C3000004981A9B471A21463846199A00F09AFA5F
:10C310000199401945180BE051E030E113E050E07D
:10C32000009800990078491C00911A9A1999904731
:10C330000198401E0190401CF2D1214638461A9BBC
:10C34000199A14E139E00A2000210090019160025D
:10C35000410F022907D0189A01CA1892C2179446B1
:10C3600003290AD00CE01898C01DC108C9004A680A
:10C37000086808319446189107E000B2C217944645
:10C38000042902D140B2C1178C460022614694456F
:10C3900006DA0A460021404291418C462D2102E0F6
:10C3A000210504D52B216A461173012103E0E10721
:10C3B00001D02021F7E7029151E00A200AE0102085
:10C3C00008E0102000900021042004430191082778
:10C3D00003E008200021019100906002410F022932
:10C3E00007D0189A01CA18920022944603290AD04D
:10C3F0000AE01898C01DC108C9004A6808680831D9
:10C400009446189103E080B2042900D1C0B2002103
:10C410000291210723D51199702928D0009A102163
:10C42000019B4A401A4309D16146014306D030219D
:10C430006A4611731199517302210291009A0821E1
:10C44000019B4A401A430AD16146014301D1610769
:10C4500005D530216A46117301217F1E0291119981
:10C46000582909D030A10E910DA90D9112E040215B
:10C470006A4611730121E0E730A1F4E76146019BB0
:10C48000009AFFF754F90E9B8C469B5C0D9A521E46
:10C490000D92137061460143F0D10D9805A9081A59
:10C4A00020300190600703D501200004844300E0A0
:10C4B00001270198874201DD381A00E00020019928
:10C4C00000904118029809180498401A0490E0035B
:10C4D00006D421461A9B199A049800F0B3F945191D
:10C4E000002706E003A81A9AC05D199990476D1CB1
:10C4F0007F1C02988742F5DBE0030CD521461A9B8E
:10C50000199A049800F09EF9451904E01A9A30200F
:10C51000199990476D1C0099481E00900029F5DC80
:10C520001FE000000928010030313233343536373E
:10C53000383961626364656600000000303132336F
:10C54000343536373839414243444546000000000F
:10C550000D980D990078491C0D911A9A19999047D8
:10C560006D1C0199481E01900029F1DC4CE100F09E
:10C5700059F94519761C3078002800D0DBE52846AB
:10C580001BB0F0BD600700D406271898C01DC10875
:10C59000C90048680A680831C30FDB071891190001
:10C5A00001D09CA108E0210501D59BA104E0E10791
:10C5B00001D09AA100E09AA1430011985B08109164
:10C5C00065280CD006DC452809D046281DD0472810
:10C5D00041D141E0662818D067283CD13CE00021D9
:10C5E000112F01DB112000E0781C0191009008A9B7
:10C5F00011A8FFF7EFFC139905910021119A1592EC
:10C600007F1C12980197009150E00120C007039011
:10C610000120019008A9009711A8FFF7DBFC139AED
:10C62000149905920022119B009212981593059A75
:10C630000192002901D0104602E0791C40180190B7
:10C64000381A01D5019804E04042401E0090781C41
:10C650000190C01B029043E0012F00DA0127002166
:10C66000112F01DD112000E038460191009008A94A
:10C6700011A8FFF7AFFC13990591119A00211298A8
:10C6800015920091019721070CD40599B94201DB5D
:10C69000019900E00191012904DD159A491E515CC0
:10C6A000302906D0B84201DA011D05DA01210291D4
:10C6B00015E00199491EEDE7002805DC00994118B5
:10C6C00000910199091A03E0019A411C914200DD91
:10C6D00001910099401A401C02900120C00703906C
:10C6E000200706D402990198814202DB0020C04352
:10C6F000029000206946C87707AF012103980337ED
:10C70000C907884224D0022011902B201290039850
:10C7100000280CDA404203902D20129007E00A21F5
:10C720000398FEF713FD30317F1E03903970119985
:10C73000481E11900029F2DC03980028EFD1791EE1
:10C74000129808703078202108404530BF1E38709C
:10C7500006A8C01BC01D039010980078002800D0C8
:10C760000120019941180298C01709180398091867
:10C770000498401A401E0490E00306D421461A9BF8
:10C78000199A049800F05EF845191098007800286E
:10C7900003D01A9A199990476D1CE00323D52146BE
:10C7A0001A9B199A049800F04DF845191BE000985F
:10C7B000002807DB00990598884203DD1598405C46
:10C7C000199901E0199930201A9A904700986D1C28
:10C7D000401C00900298401E029004D11A9A2E200C
:10C7E000199990476D1C0199481E01900029DEDCC3
:10C7F00005E038781A9A7F1C199990476D1C0399A7
:10C80000481E03900029F4DC21461A9B199A0498CB
:10C81000ADE600002D0000002B000000200000000D
:10C8200000000000F8B5044600251E46174688049F
:10C8300004D405E039462020B0476D1C641EF9D5AC
:10C840002846F8BDFFB50446002581B01E46C80342
:10C8500001D5302700E02027880404D505E03846BC
:10C860000399B0476D1C641EF9D5284605B0F0BD8C
:10C8700010B501220221002000F0E4FC002801D0C4
:10C88000072812D107220221012000F0DBFC00283A
:10C8900001D0072809D100210A22084600F0D2FC65
:10C8A000002801D0072800D1002010BD04484268AC
:10C8B0000121C9050B46934383600A40C26070475B
:10C8C0000005005070B50024064D06E06968E000E0
:10C8D000085C012101F0B0FB641C28788442F5D388
:10C8E000002070BD301F0020F8B515460C460646E6
:10C8F000052A01D20720F8BD01F070FC002803D101
:10C9000001F042FC0028F6D1104900204E600C7066
:10C91000C8608D6008610E4D0DE0E0006968801907
:10C92000009181786A46517000780A4A694601F0A0
:10C93000D3FB0028DFD12046641EE4B20028ECD1EE
:10C94000054A0021024800F04BF8F8BD301F0020D6
:10C9500064FA0100A5D9010075D70100BFF34F8F1C
:10C9600003490248C860BFF34F8FFEE70400FA0591
:10C9700000ED00E00EB50021029000916A460191A1
:10C980000148FFF7EBFF0EBD0140000010B58268C3
:10C99000C3689A1A03D000F0EBFF002010BD0520F9
:10C9A00010BD002906D0002A02D0531E134203D026
:10C9B000092070470E20704701608380002181604C
:10C9C000C1600846704710B58268C3689A1A8388A8
:10C9D0009A4203D800F0D6FF002010BD042010BDFD
:10C9E000094B9B68002B07D0002A07D0002805D0F0
:10C9F0000068037C002B03D0082070470720704795
:10CA00004174426100207047441F0020FFB5900729
:10CA1000002581B014460E46002832D11B4F002C51
:10CA200031D002F06FFC0498786103203870224600
:10CA3000BC6018340020334618214B43C1008918CC
:10CA40000D704D708E704C601C19401C0328F5DB76
:10CA5000FD607D7001240E48BD7024050460032133
:10CA60001420FFF75DF90B4804600B4C0198A0609F
:10CA700003211120FFF754F960683861002005B0E8
:10CA8000F0BD0720FBE7BD60FBE70000441F00206E
:10CA900080E200E000E100E000150140FEB50D4637
:10CAA0001B4917468968044600292AD0002C28D043
:10CAB000052D01D20720FEBD6069002821D0607CD1
:10CAC000012820D0002602F027FFC0001049019065
:10CAD00089684018694602F049FF002815D00121F5
:10CAE00001700C49446049680830E2C00849019867
:10CAF0008968411868460078487002F069FD002096
:10CB0000FEBD0820FEBD2E46DDE70420FEBD000070
:10CB1000441F002000150140F8B5134D0446A968D4
:10CB200000291CD0002C1AD06069002817D00026DC
:10CB3000267402F0F1FEC700A8686946381802F0B2
:10CB400015FF00280DD0022101704460A868391833
:10CB500068460078487002F03BFD3046F8BD08207A
:10CB6000F8BD0420F8BD0000441F002010B50446A5
:10CB700009488168C2688088511A814207D1012121
:10CB8000064801F09BFB002801D0052010BD21467E
:10CB90000148FFF7FBFE10BDCC270020291F002015
:10CBA00070B50446224888B01E460D0042601CD075
:10CBB000A888296882B21F48FFF7F3FE002815D124
:10CBC000A889A96882B21B481030FFF7EAFE002846
:10CBD0000CD1202218496846FEF7CEFAA0680690CC
:10CBE0002079002804D0012103E0072008B070BD9F
:10CBF00000216846017506776079002800D00E2074
:10CC000069464875E0780290A078039020780190FA
:10CC1000607800900949684601F0E8FA0028E5D1FB
:10CC200001F072FB02480121401C01F047FBDDE7E7
:10CC3000281F0020CC27002024FA010045F701001E
:10CC400010B501460A48FFF7BEFE04000ED101F000
:10CC500001FC00280AD107490548FFF797FE002884
:10CC600004D10121034801F0A9FB0446204610BD70
:10CC7000DC270020281F002070B500280AD00F4DA7
:10CC80002978002908D0044602F020FB002805D0AE
:10CC9000002070BD0E2070BD082070BDE868062819
:10CCA00009D2074A8100891822880A8062884A804E
:10CCB000401CE860ECE7042070BD0000181F002055
:10CCC000D4250020002808D0002205490123CA608D
:10CCD0000B708A604860104670470E207047000055
:10CCE000181F002010B5002811D000290FD0114ABC
:10CCF0001278002A0BD00A88112A11D0302A07D0C6
:10CD0000322A09D0332A02D1091D01F0FFFC10BDDF
:10CD1000091D01F059FD10BD091D01F083FC10BD76
:10CD2000FF30A130898842899142F8D10021C17138
:10CD300010BD0000181F002010B50B4600280ED0B3
:10CD4000134A117800290CD0D168002909D0044673
:10CD5000FF34A134E179002905D0112010BD0E2047
:10CD600010BD082010BD6381002191600246217230
:10CD70000848A1710188118040885080012118461F
:10CD800090DF0028EED10120E071002010BD0000EE
:10CD9000181F0020D425002010B5044601F0D4FB54
:10CDA000204600F081F921460448FFF79BFF034825
:10CDB0002146103800F066F810BD00004C2300201A
:10CDC00070B5054608780C46012806D0022816D012
:10CDD000032801D102F0F0FA70BD224661880A32C0
:10CDE000284600F019F8002801D0FFF7C3FD2846B7
:10CDF00000F0B2F80028EFD0FFF7BCFD70BD0025B1
:10CE000006E06068405DFFF71BFF0028F9D16D1C4C
:10CE1000207AA842F5D870BD00280AD04180002AA7
:10CE200005D05188C18011888180918801810020BE
:10CE300070470E207047000030B5114B0D460400BE
:10CE40000FCB85B003936B4607C317D0002D15D0C9
:10CE50002146684663DF00280ED121786846817438
:10CE600001210182881E60802868E0600020A08087
:10CE7000208104A8FFF700FF05B030BD0E20FBE7BE
:10CE8000FCF901001FB500282DD000292BD04288C5
:10CE9000154B9A4202D08C88A24224D10C88112CC6
:10CEA00014D0392C1FD18288002A1CD08B89934240
:10CEB00019D1C268002A16D002236A4613700A46A6
:10CEC00012320192097C6A46117209E08988914206
:10CED00009D1C168002906D003216A461170438038
:10CEE000C268694690471FBDFFFF00007FB5002262
:10CEF00000920192029203920B460A780E33002AA6
:10CF000029D18A88012A26D18A790478A24222D19D
:10CF1000002213E00C2454431D5B022D02D0032D8C
:10CF20000BD104E0E41824896D46EC8105E0E41897
:10CF300026896D466E816489AC81521C0C7A9442BC
:10CF4000E8D8C268002A06D04A8869464A80012289
:10CF50000A70C26890477FBD1FB5010018D048888D
:10CF60000D4A904216D0C988002913D001236A4681
:10CF7000137300235373094B1A695B690092019381
:10CF80006A46518003A90291694698DF04B010BD3A
:10CF90000E20FBE70820F9E7FFFF0000FCF9010085
:10CFA0003EB5002803D0142A03D907203EBD0E2029
:10CFB0003EBD4388094CA34201D108203EBD084D27
:10CFC0001C3538CD00930295019404896B465C8032
:10CFD000DA8002914088694698DF3EBDFFFF00007D
:10CFE000FCF9010000B5174887B0406805900023A0
:10CFF0004822154905A802F06BFA002801D0FFF776
:10D00000B9FC6A460021012002F04AFA002801D04A
:10D01000FFF7B0FC0D4802F0E1F9002801D0FFF75E
:10D02000A9FC684602F032FA002801D0FFF7A2FC02
:10D03000074802F021FA002801D0FFF79BFC07B057
:10D0400000BD000094F90100BC1F0020E01C00207E
:10D0500099CD01007CB5134E00250C4630600029A7
:10D0600018D06946002000F0B5F8002819D101A9B0
:10D07000012000F0AFF8002813D1684601790020A4
:10D08000002901D0022004E069460978002900D077
:10D090000B2020707068002802D1FFF7E9FB0546DD
:10D0A00028467CBD0C1F002010B51C4C0188606810
:10D0B00010290DD011290AD1401E606007D1FFF759
:10D0C000D7FB002803D02168002900D0884710BD75
:10D0D00000281ED100210122084600F0B3F80028E4
:10D0E00001D0072811D107220221012000F0AAF85F
:10D0F000002801D0072808D104220221002000F0D6
:10D10000A1F8002805D0072803D02168002900D005
:10D1100088476068401C606010BD00000C1F002044
:10D1200010B5032000F00CFA002801D0062800D129
:10D13000002010BDF8B507460024234802E0641C17
:10D14000042C1AD2A2008258BA42F8D1042C14D26C
:10D150001D481E4E0C38002929D001290ED0022965
:10D160000BD16000201880194578002D05D0184893
:10D170000169002901D028468847F8BD610061187F
:10D18000755C8E19717800290CD011490A22496802
:10D19000806851430E4A521CFFF780FC002801D1E1
:10D1A0000B4847700A48B17814300155DDE78068B4
:10D1B000FFF7B2FC06486100611814308919005D60
:10D1C0008D78A842D1D0F8BDCCF90100A825002067
:10D1D000F41E002004280CD2074A1269074B800075
:10D1E0001B5C01209840904300D001200870002073
:10D1F00070470020FAE7000000050050CCF901005C
:10D2000010B5042813D00A2810D1002000F03EF8F1
:10D21000002801D0FFF7AEFBFFF782FF002801D006
:10D22000FFF7A8FB3CDF08E0FFF7A4FB10BD0448B4
:10D230001321408876DF0828F8D00028F4D110BDEB
:10D240003C23002070B50023042811D244000419A7
:10D250000D4D012A02D101290DD00022460080196E
:10D26000094E801900290CD0012906D0022906D0C8
:10D270000723184670BD0D30C2B22A55F9E7427037
:10D28000F7E78270F5E70000A825002010B5054AF1
:10D290000146127A0020D20702D0084600F054F866
:10D2A00010BD0000F41E002070B50E462049054652
:10D2B0004E608D6000200A61A9071ED5002401225E
:10D2C00011462046FFF7BEFF641C042C02D2002842
:10D2D000F5D012E0002810D1720804211548FFF79C
:10D2E00003FB002809D1FFF7EDFA002805D111480A
:10D2F000114A00211438FFF773FBE90706D00F220B
:10D300000E4952058A600023CB608A6100280DD146
:10D3100008480B4A00211C38FFF762FB002805D1A2
:10D320000448084A01211838FFF75AFB70BD000075
:10D33000F41E0020DCF901007DD50100000500503D
:10D34000E1DB0100ADC80100FEB57A4D0722EB68B4
:10D3500092059A4302936B6800939C0006461B1942
:10D3600000200121019349050746734C3300FEF765
:10D3700098FD180D1515374755677C887F8891DE15
:10D380009E9E9E9E9EC8CED1D8DEDE140F21029AAC
:10D3900049059143A160E7602F70FEBDA260E76080
:10D3A00060680F2252055040800209D5A160E760F5
:10D3B000022E02D1E120C0000AE07D20400107E0FA
:10D3C000E160A760022E01D1C82001E0FF2091306A
:10D3D0002E706421FDF7BAFE0099414300223FE020
:10D3E000A260E76060680F2252055040800204D5B9
:10D3F000A160E76019204001EAE7E160A760E3E788
:10D40000A260E76060680F2252055040800202D59A
:10D41000A160E760D1E7E160A760D7E7A260E760BD
:10D4200060680F2252055040800202D5A160E7607B
:10D4300001E0E160A7602E700098410000220FE03B
:10D44000A260E76060680F2252055040800202D55A
:10D45000A160E76001E0E160A7602E700099002202
:10D4600036480068FFF71AFBFEBDA260E7601BE0CC
:10D4700061680120800502468A43A2600140E160A4
:10D4800010E06068012189050A468243A2600840D5
:10D49000E060E3E76068012189050A468243A260F3
:10D4A0000840E0600199C9E7E160A7602DE02348EA
:10D4B0004068FFF731FB11218A1B01D0002807D0FB
:10D4C0000F22E96852051140A160E760EF60FEBDE0
:10D4D0000121C905E960012A0CD91046C821484339
:10D4E0006421FDF733FE6968002241431348406818
:10D4F000FFF7D4FA0F22E96852051140E160A760F6
:10D50000FEBD0F214905A160E7602E70FEBD072218
:10D510009205AAE70D214905A160E760012189056F
:10D52000C2E70321C905A160E7608910BCE70F21AC
:10D530004905B9E7F41E002000050050C0F90100BC
:10D54000F0B500210B4C0C4D03273F048A00A25874
:10D5500092005619326801238B40034000D0032308
:10D56000BA431B0413433360491C0429EED3002043
:10D57000F0BD0000CCF901000007005010B50078A4
:10D580000221FFF7D7FD10BD0022D24383000449DA
:10D590000428CA5002D308182030027770470000D0
:10D5A000EC270020F0B50025ED43002A02D000232F
:10D5B000042601E0042308260B4C04E09F00E759F1
:10D5C0007F1C04D05B1CB342F8D32846F0BD26185C
:10D5D0005DB2203635709E00A151002AF5D1E118C8
:10D5E00020310877F1E70000EC27002002490918F4
:10D5F0002020085670470000EC27002038B50B4665
:10D600000146FF310246A1318879462460438018E3
:10D610004A79002A07D0521ED2B20C214A4311186F
:10D62000498A491C00E0C1886A4611800089694620
:10D630004880184692DF38BDF8B52348C1680029F4
:10D640003ED00E6821494C680769C078E11B0D0285
:10D650002D0AED1C002814D101201D4A0004506041
:10D660001B4A403A50601B49400008601A49086054
:10D670001A49012008602F20FDF73CFD12490120C6
:10D68000C870B54200D23546E81900020F4B000AB7
:10D69000403318600D4A5168001B091B0902090A32
:10D6A0000002C91C000A814209D9506818602F2065
:10D6B000FDF720FD01200749400480390860F8BDCE
:10D6C00001F020FEF8BD0000441F002000150140BD
:10D6D0004013014080E200E000E100E00010014062
:10D6E00010B501460148FFF701FC10BD3C230020A6
:10D6F000F7B50546FF350646A135A87946214843CA
:10D7000087196C790C206043C1193A790A31601C81
:10D7100082B0904226D101AB0022304600F0A8F939
:10D72000002822D010E0401EA04201D1002003E0DA
:10D730000C206043C01916300246009001AB304601
:10D7400000F096F9002807D003980021017001A984
:10D75000049893DF05B0F0BD68790099401C641C03
:10D760006871E4B23879A042DDD8039801210170D4
:10D770000020EFE7F8B500260124154D24E0696884
:10D78000F00047183878214681402A690B46134239
:10D7900018D08A432A6100F0EDFC3A782146EB6804
:10D7A000914019400346934099420BD17978012961
:10D7B00001D0012100E000217B684140002B01D015
:10D7C00010469847761CF6B228788642D7D3F8BD23
:10D7D000301F0020F7B5FF21A7311446095C46220F
:10D7E00051430F18384601F071FD060033D01A4935
:10D7F000886806282FD222460C4650214843174DF0
:10D80000394640194280001D4622FDF7B5FC0198BB
:10D810000027002804D0A068502148432F5404E07A
:10D82000A0680221502250432954A068502141434E
:10D830004919401CCE64A060E16888420BD10026E3
:10D8400005E0502070434019C16C8847761CE068A1
:10D850008642F6D3A760FEBD181F0020EC250020ED
:10D8600030B50D46FF21A7311446095C46225143CD
:10D8700093B0081801F02AFD030005D068464480E3
:10D88000012101700195984713B030BDF0B589B002
:10D8900000246F4618480057FDF70EFF1749A500F2
:10D8A0004959FDF7DEFC78510646134814493330D8
:10D8B0004059FDF7DEFC04A9485101463046FDF70A
:10D8C00015FDFDF704FF02460B4600200D4901F04F
:10D8D00009F8FDF710FF094950394851FDF7F7FEE7
:10D8E00002460B46611C08A0FEF7B4FA641CE4B2C1
:10D8F000042CCFD309B0F0BDB11E00204825002074
:10D9000000002041000024400D0A20446973746126
:10D910006E63652066726F6D207265666572656EF6
:10D920006365206E6F6465202564203A20256600BB
:10D9300010B50E4900234A788C78A24212D0521CAE
:10D94000D2B24A70022A00D14B704A78074B92003B
:10D9500018339A580260086910180002000A08611A
:10D96000012010BD0360002010BD0000441F0020F6
:10D97000826883881A4003689A5C0A708168491C2F
:10D9800081607047C26883881A4003689954C168EF
:10D99000491CC160704710B50446C0B2FFF750F98A
:10D9A000204610BDF8B50746114E0125BD40306830
:10D9B000FFF7B2F8002806D10E4C20690146294233
:10D9C00002D0A8432061F8BD384600F0D3FB002800
:10D9D000E06801D0284300E0A843E060206900220D
:10D9E00028432061A1683068FFF758F8F8BD0000AF
:10D9F00064FA0100301F0020F8B51C4C2078002884
:10DA000033D02069002807D00026E068002805D020
:10DA10000025002E04D011E00126F6E70125F8E7E5
:10DA2000684652DF052804D0002804D0FEF7A2FF84
:10DA300004E0012602E0216900988847002D10D1FA
:10DA4000608869460880A06861DF052804D0002846
:10DA500004D0FEF78FFF04E0012502E0E168A06832
:10DA60008847002EDCD0002DD3D0F8BD681F0020E1
:10DA700030B50989002A05D0D088491C814213D1CC
:10DA8000002030BD0246FF32A132947946256C4316
:10DA900024182489A142F3D0491C19809179462287
:10DAA00051430818008902E01980D088401E588030
:10DAB000012030BD1048018CC9B2012917D1818CD9
:10DAC000090714D1018D09060A0F03D1828D1206B0
:10DAD000120F0ED0090F012903D1828D1206120FE9
:10DAE00007D0032903D1808D0006000F01D000204C
:10DAF0007047012070470000C00F00F0F3B500240C
:10DB00000D4683B08E46093562E0285D29190190E3
:10DB1000487802280AD0032808D0042823D00528F2
:10DB200021D006283CD007283AD04EE001980026A4
:10DB3000470815E0700000194119891C6A46022047
:10DB400064DF00280BD16846018803980088814271
:10DB500005D16846817803988078814232D0761C5E
:10DB6000B742E7D831E001980026870815E0B000F9
:10DB700000194119891C6A46022064DF00280BD174
:10DB80006846018803980088814205D168468178FB
:10DB900003988078814215D0761CB742E7D814E00C
:10DBA000891C6A46102064DF00280ED1684601886F
:10DBB00003980088814208D168468178039880786C
:10DBC000814202D1012005B0F0BD01982418641CE7
:10DBD0007046007AC008A04297D80020F3E7000002
:10DBE00010B50448017AC90702D00078FFF7ACFBF2
:10DBF00010BD0000F41E0020F8B52C49C8680A6961
:10DC00000C780F7989688646944600913EE0009929
:10DC1000E20055182A7836E0182353436968521CED
:10DC2000C918AB78D2B2934200D100220B78022BF4
:10DC300002D0032B27D123E04E680346014603E0C0
:10DC4000B14204D00B46C96900291CD0F8E700296D
:10DC500019D08B4208D1C069002805D1144F012684
:10DC6000BE600026B44601270E68C969D961002943
:10DC700009D00B689B190B6005E00174C06900E0D6
:10DC800000210028F9D169789142C5D12146641E4E
:10DC9000E4B20029BBD1054962460A61C8600F7130
:10DCA000704501D00120F8BD0020F8BD441F0020C0
:10DCB00000100140F8B5044631480026C1680091C3
:10DCC00007784EE02E48F90080680D1843E0002CDC
:10DCD00002D02046E4691FE02878182141436A6891
:10DCE000401CC0B251182870AA78904200D12E7002
:10DCF0000A784868012A30D1027C002A2DD18A682E
:10DD00004260CA6882600A69C260496981611C49CF
:10DD10000979002900D04660194943680A699C4680
:10DD2000991A0902174B090A994202D28268891886
:10DD300007E06146511A09028268090A8A4202D93B
:10DD4000511A016000E0066046600121866001749E
:10DD5000C66101F045FC002CB9D128786978884269
:10DD6000BAD138467F1EFFB20028ABD10448C16843
:10DD70000098814201D00120F8BD0020F8BD0000CC
:10DD8000441F0020FFFF7F00F0B53F4C85B02068A6
:10DD90000146FDF76EFA3D49FDF767FA02906068AB
:10DDA0000146FDF766FAFDF792FC394A394BFDF75B
:10DDB00084FBFDF7A0FC0090A0680146FDF759FA2E
:10DDC000FDF785FC344A354BFDF777FBFDF793FCF7
:10DDD000074633480190334C334E344D344938466E
:10DDE000FDF747FA039029460098FDF742FA0546E9
:10DDF00031460298FDF73DFA2946FDF7E1F903990E
:10DE0000FDF7DEF9064601222A482B49FDF73EFCC4
:10DE1000FDF771FC054621463846FDF72AFA07460C
:10DE200001990098FDF725FA044624490298FDF768
:10DE300020FA2146FDF7C4F93946FDF7C1F9074636
:10DE400001221F481F49FDF721FCFDF754FC044641
:10DE500029463046FDF74AFA1B4D064668612146C1
:10DE60003846FDF743FAA861FDF731FC04460D463C
:10DE70003046FDF72CFC02460B4614A00195009499
:10DE8000FDF7E8FF05B0F0BDF824002000001040C9
:10DE900052B81E85EB712640C2F5285C8F52364081
:10DEA0009A9909C00000C0BF3333B3BE000040C020
:10DEB0006666564099991909AE6727409A99694054
:10DEC0003433331FAE6727C0B01E00200A0D204C2C
:10DED0006F636174696F6E206F6620646576696335
:10DEE00065203A2825662C2566290000002388B085
:10DEF000284A03211846FEF789FD002801D0FEF7C5
:10DF000039FD254A04AB203207CA07C3FF2101317E
:10DF10002248009040180191039102900323204A67
:10DF2000694604A8FEF73CFE002801D0FEF722FD5A
:10DF30001C4A1D490120FFF7B7F9002801D0FEF760
:10DF400019FD69460020FFF785F8002801D0FEF78B
:10DF500011FD1648FEF7B6FE002801D0FEF70AFDB7
:10DF6000FFF740F81248009069461248FEF764FF38
:10DF7000002801D0FEF7FEFC01F01EFA0E4CFDF762
:10DF800035FEFFF783FCFFF7FFFE204600F016F892
:10DF9000F5E700000422002094F90100042000208D
:10DFA000EDF6010001D20100CD0C0000E1D6010028
:10DFB000C1CD01003C230020B80B000031B5054C59
:10DFC00004E0401E00902046FDF784F800980028E9
:10DFD000F7D138BDE70300008207D30EFF229A4035
:10DFE0008907090E10B5994000280BDA03071B0FAB
:10DFF000083B9C080C4BA400E318DC6994430C43D9
:10E00000DC6107E08408094BA400E418236893430B
:10E010000B432360C106C90E0120884004490860F3
:10E020000449086010BD000000ED00E000E400E0DD
:10E0300080E200E000E100E0F3B581B00F46019816
:10E0400000F038FC012400281E4E019817D0FFF77D
:10E05000CDFA80192030007F8009032802D00128E2
:10E060000BD005E01848006901998C40204204D08B
:10E070000321019800F02EFAFEBD0221F9E700F01D
:10E0800025FC0028F8D00198FFF7B0FA054681007A
:10E09000C81D0E4AF93089180A6980B222430A6104
:10E0A0000B49401800210160002FE5D00198FFF7CF
:10E0B0009DFA800030580028DED00648AC4044600D
:10E0C000FEBD0000EC270020000500500065004068
:10E0D0000060004000630040FEB515460E46044651
:10E0E000002700F0DDFB002801D0082738E0F27897
:10E0F00029462046FFF756FA0546401C2FD0B07837
:10E10000002807D01748A100091808680222904388
:10E11000086007E000217378204600910A460191CB
:10E1200000F0A0F9F078002810D00F48AA001018CD
:10E13000317802690D4B1A400261E206D20C890760
:10E14000890B0A4301690A43026109E008483278F1
:10E1500040192030017F92011143017700E004272C
:10E160003846FEBD0007005000650040FFE0FCFFA0
:10E17000EC27002003490969C140C807C00F00D03F
:10E18000012070470005005070B5124D2879002815
:10E1900001D0082070BD0F4900204039421E0B18E5
:10E1A0002033401CC0B21A702028F8D30024204627
:10E1B000FFF7EAF9641CE4B2082CF8D30321062027
:10E1C000FFF70AFF01200449C007486001202871B9
:10E1D000002070BD2C280020006300400248007918
:10E1E000002800D0012070472C280020F3B52C4DCA
:10E1F0000446E87E81B0002801D00820FEBD002C36
:10E2000000D1284C012720783946274E8140B16043
:10E21000206800F054F90021606800F047F92449B3
:10E22000224BA0694862607D217D0843204940312E
:10E23000C86218466268216800F07FF9207D0128D5
:10E240000FD10021A06800F031F9207B39468140D0
:10E25000B160E06800F033F91448A268E16800F0AA
:10E260005EF90298686021690026296000280DD0B7
:10E270000E48FF22217F1D328650FF2245328650F4
:10E280000D4A0C4850600220FFF7A6FE0848042102
:10E290000160EE752E76AE75EF76AE760020FEBD8F
:10E2A0003428002044FA01000005005000200040FE
:10E2B000002500408000020000230040F8B5104B0C
:10E2C00081245E680022A4000E4D002E00D0AC60B8
:10E2D000DF7D002F0BD01A7E002A04D0002E00D044
:10E2E0006C601120F8BD18610122197604E0D9751F
:10E2F0000024D8605C761C7600F012F8F8BD0000AF
:10E30000342800200023004010B5044CA07E0028D3
:10E3100003D101F043F80120A07610BD342800207D
:10E32000F8B5234DA87E104301D101F037F8686895
:10E33000204C002805D081201F4980004860002023
:10E34000F8BDFF20453000212150FF212531204616
:10E3500000F0E0F80546FF210931204600F0DAF828
:10E360000746FF214531204600F0D4F806463946DD
:10E3700031432943E9D02846304306D100F0E4FF79
:10E380000B48C17D407E8142DFD800210848002D26
:10E39000C17501D00320F8BD002E01D00F20F8BDBB
:10E3A000817E0120002901D02060C8E76060C6E7B7
:10E3B00034280020002000400023004010B5034610
:10E3C00000F048F8002801D0112010BD034A0020B9
:10E3D00091759360908200F003F810BD34280020FE
:10E3E000F8B50026194FFF251D357E510120B86074
:10E3F00001F056F9164C6168002910D024E0FF277F
:10E4000001372946114800F085F8002802D1A08A7A
:10E41000B842F6D1A08AB84201D001F041F9A08AF1
:10E42000A17D8842EBD3A18AC81FF93801D10F26FC
:10E4300008E0064F2946384600F06CF80028F9D06D
:10E440000120F8600020A0753046F8BD0020004093
:10E45000342800200248807D002800D00120704729
:10E460003428002030B552000A439900039C0A4327
:10E470002102049D0A4329040A43024980004018EE
:10E48000026030BD0007005030B552000A439900C9
:10E49000039C0A432102049D0A4329040A430249BA
:10E4A00080004018026030BD000700501CB50022FB
:10E4B0000B46009211460192FFF7E6FF1CBD1CB50A
:10E4C000002100910B46012201911146FFF7DCFF6C
:10E4D0001CBD0000820006481018026803231B04BC
:10E4E0009A430260026809040A4302607047000010
:10E4F00000070050034940180068012800D00020A0
:10E5000070470000006000400921C90141180868F7
:10E51000086070474058002800D00120704705234C
:10E520001B02C0188160026170470322120280182A
:10E530004068084000D00120704705231B02C01826
:10E54000C16042617047000070B50446011D00883B
:10E550001B285AD009DC102849D0132846D10023A3
:10E56000A0881A4685217FDF4CE01D2805D01F2892
:10E570003CD10888091D75DF44E00C1D264A0020A7
:10E5800006214143535C6578AB4218D189184B781A
:10E59000A578AB4213D18B78E578AB420FD1CB781D
:10E5A0002579AB420BD10B796579AB4207D149791B
:10E5B000A379994203D1184BE1790C3B1954401CC3
:10E5C000C0B20428DCD321461448FFF797FA00288C
:10E5D0000CD0124A20460832114608318CDF002840
:10E5E00004D1FEF753FE0DE0FEF7C4F970BD07201D
:10E5F000FEF74CFE002801D0FEF7BCF9A1880848C0
:10E60000FEF79AFB0028EFD170BD08790228FBD1F4
:10E6100000F0D2FE70BD0000CC1E002094F9010075
:10E620004C230020F3B583B0039E0C46FF360888C8
:10E63000A1367189884257D1B07946214843039960
:10E640004718608800283CD12046083001903D7969
:10E65000207A2818052800D905203871002013E0F9
:10E6600000980A21484301990A2241180C20684366
:10E67000C0190290891C0A30FCF77EFD0298002127
:10E68000818200986D1C401C00903879A842E7D820
:10E690000C204543E919CA88B179462303985943A8
:10E6A0000818008982420CD23879052809D0707187
:10E6B00021880398FEF7A2FF010015D00020F07119
:10E6C00009E000257571228869460398FFF710F864
:10E6D00001000BD0F57122880398FFF7C1F80A48B2
:10E6E000032101702188418005B0F0BD68460078A3
:10E6F0000028F9D0228801210398FFF76BF82188C0
:10E70000039800F097F8EFE7EC250020F3B581B00F
:10E71000019D0C46FF350888A1356989884240D1A2
:10E72000A8794621484301990C234218687921466B
:10E73000584380180A30844660880831002812D176
:10E740001F4E0B880DE0062747437F18BF88B7424E
:10E7500006D106235843401841886046418102E0B3
:10E76000401C8342EFD8002668460670687911790C
:10E77000401C884203D101206946087016E0687188
:10E78000228869460198FEF7B3FF01000AD0EE71B6
:10E7900022880198FFF764F80A4803210170218854
:10E7A0004180FEBD684600780028FAD02288012109
:10E7B0000198FFF70FF82188019800F03BF8FEBDA3
:10E7C00002290000EC25002070B50646FF360C46F5
:10E7D0000546A136B07946214843411922887089FF
:10E7E00082420AD16088002808D000212846FEF71E
:10E7F000F1FF2188284600F01DF870BD62890A806B
:10E80000A2894A80E289CA80208A08812188284614
:10E81000FEF7F4FE0100F0D00020F07122882846B7
:10E82000FFF71EF80248032101702188418070BD66
:10E83000EC250020F8B50446FF340646A134207AC2
:10E840000F46401CC0B214492072C9680025884296
:10E850001FD26571A0794621401CC0B241438A197C
:10E86000A0710E49800040180188118040885080B6
:10E8700015710121384690DF010009D0E5713A4653
:10E880003046FEF7EDFF0548032118300170478040
:10E89000F8BDE571F7E70000181F0020D42500201F
:10E8A0000349081820214156C817401C7047000032
:10E8B000EC2700200449081820214156042901DBD7
:10E8C0000120704700207047EC27002004490818F9
:10E8D00020214156042901D20120704700207047B1
:10E8E000EC270020F0B51FB496B0054684460C46D0
:10E8F0001898199A00904900500063004908400890
:10E900000493002D01D0012600E000269E19FE4B45
:10E91000F318FE4EB3420AD3009E5300002E00D0DF
:10E9200001269F19F84EBF197610B74207D26046EC
:10E930002146199B189AFCF717FD1BB0F0BD009FEC
:10E9400006463E4371D0F24EB44201D1002D6CD048
:10E950006746049E002F00D00127F719ED4EB742FD
:10E9600006D8009F002F00D00127DB19B34207D93A
:10E9700028462146199B189AFCF7F6FC1BB0F0BDFF
:10E9800000230793002C2EDAE34B98422BDAE34B5B
:10E99000984201DB022325E0DD4B984223DBE04B6C
:10E9A000060DF318142B0EDD3426F71A009BFB40DE
:10E9B0001E46BE40009FBE4215D1DE07F60F022361
:10E9C0009B1B07930FE0009E002E0CD11426F61A15
:10E9D0000346F3401F46B340834204D1FE07F60FBF
:10E9E00002239B1B079363460B431FD1002A1DDAAA
:10E9F000002C04D00798022801D001280AD0022058
:10EA0000FDF7E2FA002213461046C149FCF7C6FDA5
:10EA10001BB0F0BD0220FDF7D7FA2A46234600209E
:10EA2000BB49FCF7BBFD1BB0F0BD14E0009B002B05
:10EA300062D1B94B984221D1BA48844202D1604692
:10EA4000002808D0B248814209DB002A10DB189860
:10EA500011461BB0F0BD0020AD491BB0F0BD002A2F
:10EA600006DA11460122D207189851401BB0F0BDBA
:10EA7000AD497944086849681BB0F0BDA44EB04266
:10EA800024D1002A1EDA002905D0994213D160460C
:10EA9000002809D016E06046002875D19E49E20F93
:10EAA000D20711431BB0F0BD0020E20F0146D20790
:10EAB00011431BB0F0BD994204DA2A4623460020D8
:10EAC000314669E0284621461BB0F0BD994213DA71
:10EAD00001239B079A4204D12A4623461046194631
:10EAE000EBE3924B9A4207D1231E05DB28461946D9
:10EAF00000F008FD1BB0F0BD63005B086646002E09
:10EB000030D100290AD0844EB1422BD1002C0FDD28
:10EB1000002A1EDB002031461BB0F0BD07980228FA
:10EB200017D0002C15D0012813D1002C15DB10E0D4
:10EB3000002C17DA0798002A09DB012803D00020EF
:10EB400075491BB0F0BD002079491BB0F0BD01280C
:10EB500003D0002001461BB0F0BD00200121C907F1
:10EB60001BB0F0BDE617761C079F0D963E430CD0F8
:10EB7000704EB0427EDD704E704BB04216DD994251
:10EB80000EDC002A1CDB28E05FE20120FDF71CFA06
:10EB90000022134610461146FCF700FD1BB0F0BDE5
:10EBA0005B48814202DB002A0ADC16E0994202DA65
:10EBB000002A05DB11E0564B994217DD002A0CDDD7
:10EBC0000220FDF701FA07215D4A00200907FCF742
:10EBD0005DFD49004908002251E20220FDF7F4F9E9
:10EBE000FDF7D8F949004908002248E200222846EA
:10EBF0002146FCF75CFC012204460D46D243FCF79B
:10EC000045FD504A504BFCF758FC22462B46FCF77A
:10EC10005DFC0022454BFCF750FC06460F462246A1
:10EC20002B4610461946FCF751FC3B463246FCF792
:10EC30004DFC0646032209915207444B20462946C3
:10EC4000FCF744FC0F460C90414A404B3046099972
:10EC5000FCF73CFC064602913E4A3F4B20462946C3
:10EC6000FCF734FC3246029BFCF721FC04460B46C1
:10EC7000024600E011E0099139460C98FCF774FB5C
:10EC800000250E463B4628460C9AFCF710FC22460F
:10EC9000099BFCF712FC0B468EE1012400202405A1
:10ECA000A14207DA352228461946FCF7EFFC054653
:10ECB0003420C0430A15121819481018049008038C
:10ECC000000B134906460E432449884201DC00200C
:10ECD00003E02349884202DA0120074604E0049851
:10ECE0000027401C361B04901E49F80079440F9001
:10ECF00008184368026828463146FCF7D8FB0191A2
:10ED000019490C90794431E0FFFF1F00FFFF0F000D
:10ED10000000F03F0000E0FF0000F07F00004043F3
:10ED200001FCFFFF0000F0BF821000000000E03F88
:10ED30000000F0FF0000E0410000F043FFFFEF3F64
:10ED400001030000555555555555D53F4715F73F1B
:10ED5000FE822B6544DF5DF80BAE543E8E980300B7
:10ED60007AB60B00800D0000680D00000F9808189F
:10ED70004368026828463146FCF7F6FA02460B461D
:10ED80000020FE49FCF70AFC09910E90019B0C9AA9
:10ED9000FCF79CFB05910A900B91F94801217844FE
:10EDA00000681290701049070843B9044018012107
:10EDB000C9044718F3490F98794408184368026852
:10EDC000002439461298FCF772FB2A463346FCF7BA
:10EDD00074FB02460B4620460B99FCF777FB054671
:10EDE00000913B462046129A0B99FCF76FFB019B62
:10EDF0000C9AFCF762FB2A46009BFCF758FB099B28
:10EE00000E9AFCF763FB109105990A9A0E900B4637
:10EE10001046FCF75BFB05460246DB480E460B46F8
:10EE200006217844FDF760F807462A4633460691E6
:10EE300010461946FCF74AFB3A46069BFCF746FB90
:10EE400005460E462046059B0A9A0B99FCF78CFA5C
:10EE5000109B0E9AFCF73AFB2A463346FCF784FADD
:10EE6000019106900B9922460B461046FCF72EFBAB
:10EE7000C64D00222B4603910090FCF775FA019BCA
:10EE8000069AFCF771FA0F4622462B462046FCF7FD
:10EE90000EFB039B009AFCF70AFB019B069AFCF70A
:10EEA0000CFB05460E4622463B4610460B99FCF7E6
:10EEB0000DFB01910C9028463146059B0A9AFCF700
:10EEC00005FB05460E463B46224610990E98FCF778
:10EED000FDFA33462A46FCF747FA06460F460B462C
:10EEE000024601990C98FCF73FFA00200D460446B3
:10EEF000019B0C9AFCF7DBFA3B463246FCF7DDFA45
:10EF000006460F4607225207A14B20462946FCF72A
:10EF1000DDFA019102909F4A9D4B30463946FCF73D
:10EF2000D5FA06460F469C4A9C4B20462946FCF7DC
:10EF3000CDFA32463B46FCF717FA994A04467A4422
:10EF40000F981018436802682046FCF70DFA0591E7
:10EF50000A900498FCF7E0FC07460391059B0A9A87
:10EF600001990298FCF700FA8E4A04467A440F98F9
:10EF70001018436802682046FCF7F6F93A46039BEE
:10EF8000FCF7F2F900250E463A462846039BFCF7AB
:10EF90008EFA854A04467A440F981018436802682E
:10EFA0002046FCF784FA019B029AFCF780FA059B45
:10EFB0000A9AFCF782FA0B4600210A91079A0D99EA
:10EFC0006E4C521E114301D1784C0A9100221999BE
:10EFD000049202460F461898FCF778FA00900791C1
:10EFE0003B46049A19991898FCF761FA2A46334669
:10EFF000FCF76CFA079B009AFCF7B6F909911090A0
:10F000002A46334639460498FCF760FA06460F460E
:10F01000099B109AFCF7A8F9654A0D46914224DB3A
:10F020005242AA18024310D132463B46FCF73FFA3F
:10F03000049003915F4A604B09991098FCF794F98A
:10F04000039B049AFCF79CFC2FD20220FCF7BCFF28
:10F0500007215A4A00200907FCF718FB4900490814
:10F06000E20FD20711431BB0F0BD6A00544B5208A7
:10F070009A421AD3534AAA1802430CD102E0114310
:10F080001BB0F0BD32463B46FCF711FA099B109AC3
:10F09000FCF776FC09D80220FCF796FFFCF77AFF14
:10F0A00049004908E20FD207E9E768000023400859
:10F0B00045490493020D454B5218984223DD521CDA
:10F0C00001200005D04040194200520D5118404A1D
:10F0D0007A441268034694463E4ACA409343020368
:10F0E0000120120B000510181422511AC840049078
:10F0F000002D01DA40420490624630463946FCF762
:10F10000D6F906460F4632463B4609991098FCF759
:10F110002BF900200D4602462F4B0E90FCF7D6F936
:10F1200001910C902D4A2E4B29460E98FCF7CEF9F2
:10F130000791129032463B4629460E98FCF7B7F9E4
:10F14000099B109AFCF7B9F9264A274BFCF7BEF940
:10F15000079B129AFCF708F907460B4602460991ED
:10F1600001990C98FCF700F90E460546019B0C9A94
:10F17000FCF79DF93A46099B38E000000000F03F9B
:10F18000560D0000B40C00007A0C0000000008408E
:10F1900009C7EE3FFD033ADCF5015B14E02F3EBEEC
:10F1A0004E0B0000100B0000E60A00000000F0BF4C
:10F1B00000009040FE822B654715973C010300003C
:10F1C00000CC904000346F3F01FCFFFF0000E03FA7
:10F1D000240A0000FFFF0F00432EE63F396CA80C05
:10F1E000615C20BEEF39FAFE422EE63FFCF765F97E
:10F1F0002A4633460991109010461946FCF766F9E5
:10F2000002460E902F480F460B4605217844FCF726
:10F210006BFE3B460E9AFCF759F92A463346FCF73B
:10F220004CF90746089128463146099B109AFCF78D
:10F230004DF9099B109AFCF797F8012303910C9064
:10F2400000229B0738460899FCF731F901910E908E
:10F250003A4628463146089BFCF738F9019B0E9A3E
:10F26000FCF79CF9039B0C9AFCF721F92A463346DC
:10F27000FCF71DF90022144BFCF71FF90646049811
:10F280000D46000541190915002911DC30462946B3
:10F29000049AFCF7FBF9FCF711FE042801D1FCF7F6
:10F2A00079FE30462946049AFCF7F0F9064600E05C
:10F2B00029180B46324621460A98FCF707F91BB07D
:10F2C000F0BD0000C00800000000F03FF0B50C4B9E
:10F2D00000210A4ADC680CE08D00AE18B678877809
:10F2E000BE4205D1555B0688B54201D15868F0BDD4
:10F2F000491CA142F0D30020F0BD0000D42500201D
:10F30000181F002070B501240B49600408600B49E8
:10F3100040108860094940398860094D6C602F2091
:10F32000FBF7E8FEAC60074D00242F202C61FBF7B3
:10F33000E1FEEC7070BD000080E100E04013014090
:10F3400000100140441F002030B50A48FF22C57D4F
:10F35000002409490932094B002D8C5007D09969C6
:10F36000437EC268D154417E491C417630BD9869C4
:10F3700030BD00003428002000200040002500405F
:10F380001FB501236A46137010720348019106C825
:10F39000684690471FBD000034280020FF22054822
:10F3A000253200218150FF22093281500121016064
:10F3B000704700000020004010B507488ADF002891
:10F3C00001D0FDF7D7FA0120FDF760FF002801D03A
:10F3D000FDF7D0FA10BD0000A4F9010008B50249FC
:10F3E0000020009108BD0000B01E002010B50121D2
:10F3F000202803DA1A4A814011420CD08107C90E35
:10F4000000280ADA0207120F083A9208154B9200F8
:10F41000D218D26906E0144810BD8208134B92003E
:10F42000D2181268CA401106890F042911D2002986
:10F430000FD002290DD00E494C68C306DB0E012205
:10F440009A40002C08D0400980000B5813430B5001
:10F4500004E00548401C10BD06480260002010BDB5
:10F46000FC06FFBC00ED00E00120000000E400E02D
:10F470007C1F002000E100E0002803D00249C860A2
:10F48000002070470E207047681F00201CB50349FC
:10F4900001910091694660DF1CBD0000B01E002094
:10F4A00070B50E460546144614211046FBF77DFE46
:10F4B0000120002120802161217326726572002DB8
:10F4C00000D0A072002070BD10B5FDF747FA10BD46
:10F4D00070B5002901D08C0701D0072070BD074C02
:10F4E0000125A16062800649636010DF0028F5D124
:10F4F00025701620FFF77AFF70BD0000681F0020FE
:10F50000C9F40100F8B506460C46FCF770FA050090
:10F510000F4600D00120014349000B484908411A19
:10F52000C90F0DD0002E01D0012100E000210C43B5
:10F5300061004908401AC00F02D10120FCF744FDC8
:10F5400028463946F8BD00000000F07FFEB51F4C8C
:10F5500000252769E06802906846FEF7E9F9019006
:10F56000FEF74AFB06460198002822D000230098A7
:10F57000E16817E00E680A46864202D9301A086030
:10F5800012E0801BF31800261660D668D169B446D5
:10F59000002E07D0FE183602360A56606646966080
:10F5A000D56115460029E5D12846E160FEF782FBCA
:10F5B00006E02846FEF77EFB002801D1002E02D08F
:10F5C0000298FEF739F800202071FEBD441F00208C
:10F5D00001200249000508607047000000E200E0D9
:10F5E00010B50E4BD968002906D002680C68A242FB
:10F5F00004D8A21A0A60C161D86010BD0B4604E0AD
:10F600000B46C969121B002904D00C689442F7D339
:10F61000A41A0C600260C161D86110BD441F0020B3
:10F62000F8B51D4DEC68002C34D01C48002740680C
:10F630002969401A0602360A2068B04218D8361ADC
:10F64000C7192246107CE46900280FD000201074EE
:10F650006B69002B07D0916950699847002805D045
:10F66000FDF788F902E0516990698847002CE3D1E1
:10F670006978A878814206D1401CC0B2A8700228DF
:10F6800001D10020A87004490006800D18310F50E8
:10F69000FFF79EFFF8BD0000441F00200015014049
:10F6A000FF2107481D31002242500648828A8168A6
:10F6B000895C828A521C82820348C16170470000C3
:10F6C0000020004034280020002500401FB5002104
:10F6D0006A4611701072044882680192817506C8EA
:10F6E000684690471FBD00003428002070B501789F
:10F6F000002907D0012901D0022902D14068FDF775
:10F7000039F970BD0D4C0C4D20782818FDF72EFAF4
:10F710002078401CC0B2291820702039C97F0A29DE
:10F7200001D01428EDD3227803490548FDF738FCB1
:10F730000028F8D1207070BDA81F0020B01E002046
:10F740003C2300207CB50178284D01290AD00229EC
:10F750002FD000292CD129462548FDF717F900287C
:10F7600033D036E04068017821481038FDF72BF996
:10F770001F4C103C002805D001216A4611700190F1
:10F78000684608E0A068E168081A012805D1002051
:10F7900069460870684669688847A068E168081A81
:10F7A000A188884204D811480121401CFEF786FD3B
:10F7B0007CBD02216A461170C06801900B4801218E
:10F7C000401CFEF77BFD68460CE001210748FEF770
:10F7D000F5FD07488168C068401AE9D103206946F1
:10F7E00008706846696888477CBD0000281F0020B3
:10F7F000DC270020F0B5454D012185B0490228469F
:10F80000FEF793FE01270026414C002824D0FF215B
:10F8100025312846FEF77EFE00281DD0FF21253128
:10F8200028466E5081223B4992008A60A17E0029C1
:10F8300000D14760022269460A70FEF765FE039018
:10F84000E07D69460872E0680190E6752676626898
:10F850006846216890472BE004212846FEF765FEA4
:10F86000002825D0FF2109312846FEF753FE002845
:10F870001ED0FFF769FDE07D617E884218D1207EB1
:10F88000002808D0627EE168E0752069E060267695
:10F89000667610460AE0A07E002800D16F608121C4
:10F8A0001C4889008160E675607EE168FFF768FDAD
:10F8B000FF211D312846FEF72DFE00280DD0A18A1C
:10F8C000A07D814202D2FFF7EBFE06E0FF211D3151
:10F8D0006E50002801D0FFF7F9FEFF214531284680
:10F8E000FEF718FE00280ED0FF2045302E50A07ED7
:10F8F000002800D02F60E07D002804D0E675607EEF
:10F90000E168FFF73DFD05B0F0BD000000200040BC
:10F910003428002000230040EFF30580C005C00D0F
:10F920001AD0103840B2002808DA0107090F083948
:10F9300089080C4A89008918C96904E081080A4AC3
:10F940008900891809688007C00EC1400806800F29
:10F95000012803D0032803D00220704700207047FD
:10F960000120704700ED00E000E400E04278837879
:10F97000521CD2B2934200D100220378934201D1AB
:10F98000002070470A7041684078182250430818D8
:10F9900070470000010002000100000710003C0059
:10F9A000000090010100000000000000A0005000D5
:10F9B000000000000B09080A0100000000E0D70168
:10F9C0006825002088250020B425002011000000B3
:10F9D00012000000130000001400000011000300DA
:10F9E00035D101001200030035D1010013000300DE
:10F9F00035D101001400030035D101009ECADC247A
:10FA00000EE5A9E093F3A3B50000406E01010000EC
:10FA100000000200000000000201000000000000E1
:10FA200000000000090000000B0000000A000000B8
:10FA300008000000000000000000000000E0D70106
:10FA400003000000090000000B0000000A00000095
:10FA500008000000000000000000000000E0D701E6
:10FA600003000000502800200300000000000000F8
:10FA7000000000000000F03F000000000000F83F20
:10FA800000000000000000000000004003B8E23F5A
:10FA9000000000000000000006D0CF43EBFD4C3E0C
:10FAA000033333333333E33FFFAB6FDBB66DDB3F01
:10FAB0004D268F515555D53F01411DA96074D13F49
:10FAC00065DBC9934A86CD3FEF4E454A287ECA3F43
:10FAD0003E5555555555C53F93BDBE166CC166BFC5
:10FAE0002CDE25AF6A56113FF16BD2C541BDBBBEBE
:10FAF000D0A4BE726937663E00000000000000001E
:10FB000020FB0100B01E0020D8000000A8BF0100AB
:10FB1000F8FB0100881F0020E8100000B8BF0100BA
:10FB200000C3C8C3000000005839B43CB6F31D3F01
:10FB3000000000000000000000000000C7546363E4
:10FB4000A1D914C5864F1CE5408C1FF894CF1543EE
:10FB50006660B3E6CDCCCC3F000000406666E63F71
:10FB60000000000000000000000000000000000095
:10FB70000000000000000000000000000000000085
:10FB8000000000000024F40000000000000000005D
:10FB90000000000000000000000000000000000065
:10FBA0000000000000000000000000000000000055
:10FBB0000000000000000000000000000000000045
:10FBC0000000000000000000000000000000000035
:10FBD0000000000000000000000000000000000025
:10FBE0000000000000000000000000000000000015
:08FBF00000000000000000000D
:040000050001B0C185
:00000001FF
